:020000023000CC
:10F000000D9472F80D949BF80D949BF80D949BF859
:10F010000D949BF80D949BF80D949BF80D949BF820
:10F020000D949BF80D949BF80D949BF80D949BF810
:10F030000D949BF80D949BF80D949BF80D949BF800
:10F040000D949BF80D949BF80D949BF80D949BF8F0
:10F050000D949BF80D949BF80D949BF80D949BF8E0
:10F060000D949BF80D949BF80D949BF80D949BF8D0
:10F070000D949BF80D949BF80D949BF80D949BF8C0
:10F080000D949BF80D949BF80D949BF80D949BF8B0
:10F090000D949BF80D949BF80D949BF80D949BF8A0
:10F0A0000D949BF80D949BF80D949BF80D949BF890
:10F0B0000D949BF80D949BF80D949BF80D949BF880
:10F0C0000D949BF80D949BF80D949BF80D949BF870
:10F0D0000D949BF80D949BF80D949BF80D949BF860
:10F0E0000D949BF811241FBECFEFD1E2DEBFCDBF40
:10F0F00001E00CBF12E0A0E0B2E0EAEFF8EF03E0BD
:10F100000BBF02C007900D92A030B107D9F712E0F3
:10F11000A0E0B2E001C01D92A130B107E1F70F9469
:10F12000BAF80D947BFC01E20EBF0FEF0DBF112466
:10F130001FBE0D94BAF80D9400F8982F809100022C
:10F14000882361F09093CE008091C80086FFFCCFA9
:10F150008091C80080648093C80008959093C60091
:10F160008091C00086FFFCCF8091C00080648093B6
:10F17000C00008952F923F924F925F926F927F92BC
:10F180008F929F92AF92BF92CF92DF92EF92FF92B7
:10F190000F931F93DF93CF93CDB7DEB7CD58D140F8
:10F1A0000FB6F894DEBF0FBECDBF839A849A8B98BA
:10F1B0008C988091080180618093080180910701FB
:10F1C0008F7E80930701000000000000B0900601D0
:10F1D00020E1B222B0920002BB2061F08091C80011
:10F1E00082608093C80080E18093CC0088E18093A6
:10F1F000C9000BC08091C00082608093C00080E194
:10F200008093C40088E18093C100000000000000EA
:10F21000EE24FF248701CC24DD241FC00894E11CC8
:10F22000F11C011D111D31E5E31633ECF30630E04E
:10F23000030730E0130718F0F1E0CF2ED12CC801FE
:10F24000B70128EA31E640E050E00F9459FC61151F
:10F2500071058105910509F48B9ABB2019F0809105
:10F26000C80002C08091C00090E080789070892B27
:10F2700019F4C114D10491F2A6014F5F5F4FCF572B
:10F28000DE4F59834883C158D1408B9ACF57DE4F08
:10F2900068817981C158D1406130710509F0EBC2B4
:10F2A000CC57DE4F19821882C458D140CC24CD5798
:10F2B000DE4F1882C358D140882499245401222457
:10F2C00033242101ABBEF40187919691C457DE4FE0
:10F2D00099838883CC58D140C8C2CF57DE4FA881CC
:10F2E000B981C158D140119771F4662319F020916A
:10F2F000CE0002C02091C600CF57DE4F198218827F
:10F30000C158D1402EC08C9880E090E0A0E0B0E0E1
:10F31000662319F02091C80002C02091C000207817
:10F32000C1F40196A11DB11D8138E4E89E07EEE10C
:10F33000AE07E0E0BE0760F3C457DE4F88819981D5
:10F34000CC58D1408F5F9F4FF9F2EE27FF270994E9
:10F35000DBCF8C9A662319F02091CE0002C0209159
:10F36000C600333069F1343028F4313091F0323056
:10F3700010F508C03530B9F1353048F1363009F0B4
:10F3800052C04DC02B3109F0A8CF31E0EBE1CE2EB9
:10F39000A4CF213041F0CD57DE4FB881C358D140C2
:10F3A0002B1709F084C2C226CD57DE4F2883C358DD
:10F3B000D14032E092CF522F40E0C22633E08DCFD1
:10F3C000822F90E0482B592BC22634E086CF2E3076
:10F3D00009F06DC2C22635E0CC57DE4F1982188283
:10F3E000C458D1407ACFE1E0F0E0EC0FFD1FCC57DC
:10F3F000DE4F88819981C458D140E80FF91F2083DE
:10F400000196CC57DE4F99838883C458D140C226D9
:10F410008417950709F061CFAC0136E05ECF2C155B
:10F4200009F045C203C0373009F057CF89818331D5
:10F4300009F4FAC08431C0F4863009F4C8C08730BA
:10F4400048F4823069F1833009F45DC0813009F0FD
:10F45000C7C142C0813109F467C0823108F0B2C02F
:10F46000803109F0BDC11CC0883109F478C08931F0
:10F4700050F4853109F4D8C0853108F449C186318A
:10F4800009F0AEC145C18A3109F460C08A3108F47F
:10F4900087C08B3109F44FC08D3109F0A1C102C082
:10F4A000DD2444C08D81803311F090E00AC08F814B
:10F4B000882311F49EE105C0813011F091E001C074
:10F4C00098E91A821B828D818C831D829E831F8204
:10F4D00077E0E72EF12C89C11A8288E08B8381E4E2
:10F4E0008C8386E58D8382E58E8389E48F8383E533
:10F4F000888780E589878FE58A8782E38B876BE041
:10F50000E62EF12C72C18A81813941F0823941F0B5
:10F51000803911F48FE005C080E003C082E001C0B3
:10F520008AE01A828B834AC0DD24D3941A8252E087
:10F53000E52EF12C5BC18D81882311F48EE129C069
:10F54000813011F081E025C088E923C01A82E1E012
:10F55000F0E099E090935700E491EB831CC08B811D
:10F56000803589F48C81883039F429E0E2E0F0E0DC
:10F570002093570084910DC029E0E0E0F0E0209353
:10F580005700849106C0E3E0F0E039E03093570083
:10F5900084911A828B831C8244E0E42EF12C25C1D5
:10F5A0008D81836C49E0E1E0F0E0082E4093570044
:10F5B000E89507B600FCFDCF1A821B8233E0E32EEC
:10F5C000F12C13C11A822224332421010BC18A8118
:10F5D00090E0A0E0B0E0B82EAA24992488248B8182
:10F5E00090E0A0E0B0E0DC0199278827882A992ADA
:10F5F000AA2ABB2A8D8190E0A0E0B0E0882A992A4F
:10F60000AA2ABB2A8C8190E0A0E0B0E0BA2FA92FF3
:10F61000982F8827882A992AAA2ABB2A880C991CFD
:10F62000AA1CBB1C1A82DEC09A812B81833119F07F
:10F63000B501A40169C050E0251650EE350653E02F
:10F64000450650E0550690F463E0F10140925B00FE
:10F6500060935700E89507B600FCFDCF40E051E00D
:10F6600060E070E0240E351E461E571EC957DE4F5F
:10F670009883C758D140CA57DE4F1882C658D14028
:10F68000022F10E0CA57DE4F68817981C658D140F9
:10F69000062B172BB501A401DE011B968C91119648
:10F6A0002C9111971296C757DE4F2883C958D14025
:10F6B000C857DE4F1882C858D14090E0C857DE4F77
:10F6C000E881F981C858D1408E2B9F2B21E00C0195
:10F6D000FA0160935B0020935700E89511244E5F78
:10F6E0005F4F6F4F7F4F02501040C1F635E0F4017D
:10F6F000A0925B0030935700E89507B600FCFDCF61
:10F7000081E180935700E8951A824A015B016AC043
:10F710009A81C557DE4F9883CB58D140C657DE4FEC
:10F720001882CA58D1408B81C82EDD24C657DE4FBF
:10F73000A881B981CA58D140CA2ADB2A1A82898194
:10F740008431C9F49601BE016D5F7F4FABBEF401F9
:10F7500087919691FB01808391836E5F7F4F82E05A
:10F7600090E0A0E0B0E0880E991EAA1EBB1E2250B9
:10F77000304061F72DC0A5019401BE016D5F7F4F40
:10F780000894C108D108760100E010E00894C11C7B
:10F79000D11C0894E11CF11C011D111DE80CF91C81
:10F7A0000A1D1B1D21BDBB27A52F942F832F82BDB2
:10F7B0002F5F3F4F4F4F5F4FF89A80B5DB018D931E
:10F7C000BD012E153F054007510761F749015A0158
:10F7D00023E0E22EF12CEC0CFD1CFB01108205C095
:10F7E000F0ECFA8392E0E92EF12CDD248BE10F940A
:10F7F0009DF8CD57DE4F8881C358D1400F949DF8B6
:10F800008F2D0F949DF88E2D0F949DF88EE00F9400
:10F810009DF885E1C82ECD57DE4F2881C358D140D1
:10F82000C226CE24CF243E010894611C711C0AC05C
:10F83000D3011D913D01812F0F949DF8C12608949D
:10F84000E108F108E114F10499F78C2D0F949DF86B
:10F85000DD2089F4CD57DE4FB881C358D140BF5F5A
:10F86000CD57DE4FB883C358D1406091000230E0DD
:10F8700040E050E032CD8B988C98000000000000F2
:10F8800080910002882331F08091C8008C7F8093A2
:10F89000C80005C08091C0008C7F8093C00081E1CA
:10F8A00080935700E895EE27FF270994FFCF30E0BB
:10F8B00014CDA1E21A2EAA1BBB1BFD010DC0AA1F6D
:10F8C000BB1FEE1FFF1FA217B307E407F50720F0C9
:10F8D000A21BB30BE40BF50B661F771F881F991F44
:10F8E0001A9469F760957095809590959B01AC018D
:0AF8F000BD01CF010895F894FFCF89
:040000033000F000D9
:00000001FF
